{
  "_format": "hh-sol-artifact-1",
  "contractName": "certificate",
  "sourceName": "contracts/certificate.sol",
  "abi": [
    {
      "anonymous": false,
      "inputs": [
        {
          "indexed": false,
          "internalType": "string",
          "name": "image",
          "type": "string"
        },
        {
          "indexed": false,
          "internalType": "string",
          "name": "title",
          "type": "string"
        },
        {
          "indexed": false,
          "internalType": "string",
          "name": "artist",
          "type": "string"
        },
        {
          "indexed": false,
          "internalType": "string",
          "name": "year",
          "type": "string"
        }
      ],
      "name": "newCertificate",
      "type": "event"
    },
    {
      "inputs": [
        {
          "internalType": "string",
          "name": "image",
          "type": "string"
        },
        {
          "internalType": "string",
          "name": "title",
          "type": "string"
        },
        {
          "internalType": "string",
          "name": "artist",
          "type": "string"
        },
        {
          "internalType": "string",
          "name": "year",
          "type": "string"
        }
      ],
      "name": "createCertificate",
      "outputs": [],
      "stateMutability": "nonpayable",
      "type": "function"
    },
    {
      "inputs": [],
      "name": "getCertificate",
      "outputs": [
        {
          "components": [
            {
              "internalType": "string",
              "name": "image",
              "type": "string"
            },
            {
              "internalType": "string",
              "name": "title",
              "type": "string"
            },
            {
              "internalType": "string",
              "name": "artist",
              "type": "string"
            },
            {
              "internalType": "string",
              "name": "year",
              "type": "string"
            }
          ],
          "internalType": "struct certificate.Certificate[]",
          "name": "",
          "type": "tuple[]"
        }
      ],
      "stateMutability": "view",
      "type": "function"
    }
  ],
  "bytecode": "0x608060405234801561001057600080fd5b506109c5806100206000396000f3fe608060405234801561001057600080fd5b50600436106100365760003560e01c80632a2d8fa71461003b578063ae15eb8e14610057575b600080fd5b6100556004803603810190610050919061052c565b610075565b005b61005f61017a565b60405161006c9190610762565b60405180910390f35b6000604051806080016040528086815260200185815260200184815260200183815250908060018154018082558091505060019003906000526020600020906004020160009091909190915060008201518160000190805190602001906100dd929190610421565b5060208201518160010190805190602001906100fa929190610421565b506040820151816002019080519060200190610117929190610421565b506060820151816003019080519060200190610134929190610421565b5050507ff507d3b8707eff7c4d6011ac65f0cbc86e293f0f80cb6557e8add17287c517278484848460405161016c9493929190610784565b60405180910390a150505050565b60606000805480602002602001604051908101604052809291908181526020016000905b8282101561041857838290600052602060002090600402016040518060800160405290816000820180546101d1906108ee565b80601f01602080910402602001604051908101604052809291908181526020018280546101fd906108ee565b801561024a5780601f1061021f5761010080835404028352916020019161024a565b820191906000526020600020905b81548152906001019060200180831161022d57829003601f168201915b50505050508152602001600182018054610263906108ee565b80601f016020809104026020016040519081016040528092919081815260200182805461028f906108ee565b80156102dc5780601f106102b1576101008083540402835291602001916102dc565b820191906000526020600020905b8154815290600101906020018083116102bf57829003601f168201915b505050505081526020016002820180546102f5906108ee565b80601f0160208091040260200160405190810160405280929190818152602001828054610321906108ee565b801561036e5780601f106103435761010080835404028352916020019161036e565b820191906000526020600020905b81548152906001019060200180831161035157829003601f168201915b50505050508152602001600382018054610387906108ee565b80601f01602080910402602001604051908101604052809291908181526020018280546103b3906108ee565b80156104005780601f106103d557610100808354040283529160200191610400565b820191906000526020600020905b8154815290600101906020018083116103e357829003601f168201915b5050505050815250508152602001906001019061019e565b50505050905090565b82805461042d906108ee565b90600052602060002090601f01602090048101928261044f5760008555610496565b82601f1061046857805160ff1916838001178555610496565b82800160010185558215610496579182015b8281111561049557825182559160200191906001019061047a565b5b5090506104a391906104a7565b5090565b5b808211156104c05760008160009055506001016104a8565b5090565b60006104d76104d284610816565b6107e5565b9050828152602081018484840111156104ef57600080fd5b6104fa8482856108ac565b509392505050565b600082601f83011261051357600080fd5b81356105238482602086016104c4565b91505092915050565b6000806000806080858703121561054257600080fd5b600085013567ffffffffffffffff81111561055c57600080fd5b61056887828801610502565b945050602085013567ffffffffffffffff81111561058557600080fd5b61059187828801610502565b935050604085013567ffffffffffffffff8111156105ae57600080fd5b6105ba87828801610502565b925050606085013567ffffffffffffffff8111156105d757600080fd5b6105e387828801610502565b91505092959194509250565b60006105fb83836106ea565b905092915050565b600061060e82610856565b6106188185610879565b93508360208202850161062a85610846565b8060005b85811015610666578484038952815161064785826105ef565b94506106528361086c565b925060208a0199505060018101905061062e565b50829750879550505050505092915050565b600061068382610861565b61068d818561088a565b935061069d8185602086016108bb565b6106a68161097e565b840191505092915050565b60006106bc82610861565b6106c6818561089b565b93506106d68185602086016108bb565b6106df8161097e565b840191505092915050565b600060808301600083015184820360008601526107078282610678565b915050602083015184820360208601526107218282610678565b9150506040830151848203604086015261073b8282610678565b915050606083015184820360608601526107558282610678565b9150508091505092915050565b6000602082019050818103600083015261077c8184610603565b905092915050565b6000608082019050818103600083015261079e81876106b1565b905081810360208301526107b281866106b1565b905081810360408301526107c681856106b1565b905081810360608301526107da81846106b1565b905095945050505050565b6000604051905081810181811067ffffffffffffffff8211171561080c5761080b61094f565b5b8060405250919050565b600067ffffffffffffffff8211156108315761083061094f565b5b601f19601f8301169050602081019050919050565b6000819050602082019050919050565b600081519050919050565b600081519050919050565b6000602082019050919050565b600082825260208201905092915050565b600082825260208201905092915050565b600082825260208201905092915050565b82818337600083830152505050565b60005b838110156108d95780820151818401526020810190506108be565b838111156108e8576000848401525b50505050565b6000600282049050600182168061090657607f821691505b6020821081141561091a57610919610920565b5b50919050565b7f4e487b7100000000000000000000000000000000000000000000000000000000600052602260045260246000fd5b7f4e487b7100000000000000000000000000000000000000000000000000000000600052604160045260246000fd5b6000601f19601f830116905091905056fea26469706673582212207cfa533360968acd03405b6d876bf60a1cdceef476542fb1741e255eeafc620464736f6c63430008000033",
  "linkReferences": {},
  "deployedLinkReferences": {}
}